{
  "contractName": "PropertyFactory",
  "abi": [
    {
      "anonymous": false,
      "inputs": [
        {
          "indexed": true,
          "internalType": "address",
          "name": "previousOwner",
          "type": "address"
        },
        {
          "indexed": true,
          "internalType": "address",
          "name": "newOwner",
          "type": "address"
        }
      ],
      "name": "OwnershipTransferred",
      "type": "event"
    },
    {
      "anonymous": false,
      "inputs": [
        {
          "indexed": false,
          "internalType": "uint256",
          "name": "propertyId",
          "type": "uint256"
        },
        {
          "indexed": false,
          "internalType": "string",
          "name": "name",
          "type": "string"
        },
        {
          "indexed": false,
          "internalType": "uint256",
          "name": "price",
          "type": "uint256"
        },
        {
          "indexed": false,
          "internalType": "string",
          "name": "addressProperty",
          "type": "string"
        }
      ],
      "name": "newProperty",
      "type": "event"
    },
    {
      "constant": true,
      "inputs": [],
      "name": "owner",
      "outputs": [
        {
          "internalType": "address",
          "name": "",
          "type": "address"
        }
      ],
      "payable": false,
      "stateMutability": "view",
      "type": "function"
    },
    {
      "constant": true,
      "inputs": [
        {
          "internalType": "uint256",
          "name": "",
          "type": "uint256"
        }
      ],
      "name": "properties",
      "outputs": [
        {
          "internalType": "string",
          "name": "name",
          "type": "string"
        },
        {
          "internalType": "uint256",
          "name": "price",
          "type": "uint256"
        },
        {
          "internalType": "string",
          "name": "addressProperty",
          "type": "string"
        }
      ],
      "payable": false,
      "stateMutability": "view",
      "type": "function"
    },
    {
      "constant": true,
      "inputs": [
        {
          "internalType": "uint256",
          "name": "",
          "type": "uint256"
        }
      ],
      "name": "propertyToOwner",
      "outputs": [
        {
          "internalType": "address",
          "name": "",
          "type": "address"
        }
      ],
      "payable": false,
      "stateMutability": "view",
      "type": "function"
    },
    {
      "constant": false,
      "inputs": [
        {
          "internalType": "address",
          "name": "newOwner",
          "type": "address"
        }
      ],
      "name": "transferOwnership",
      "outputs": [],
      "payable": false,
      "stateMutability": "nonpayable",
      "type": "function"
    },
    {
      "constant": false,
      "inputs": [
        {
          "internalType": "string",
          "name": "_name",
          "type": "string"
        },
        {
          "internalType": "uint256",
          "name": "_price",
          "type": "uint256"
        },
        {
          "internalType": "string",
          "name": "_addressProperty",
          "type": "string"
        }
      ],
      "name": "createProperty",
      "outputs": [],
      "payable": false,
      "stateMutability": "nonpayable",
      "type": "function"
    }
  ],
  "bytecode": "0x6080604052336000806101000a81548173ffffffffffffffffffffffffffffffffffffffff021916908373ffffffffffffffffffffffffffffffffffffffff1602179055506000809054906101000a900473ffffffffffffffffffffffffffffffffffffffff1673ffffffffffffffffffffffffffffffffffffffff16600073ffffffffffffffffffffffffffffffffffffffff167f8be0079c531659141344cd1fd0a4f28419497f9722a3daafe3b4186f6b6457e060405160405180910390a361084c806100cf6000396000f3fe608060405234801561001057600080fd5b50600436106100575760003560e01c80630b56e3831461005c5780638da5cb5b146100ca578063ece2f43f14610114578063f2fde38b14610270578063f7b10808146102b4575b600080fd5b6100886004803603602081101561007257600080fd5b81019080803590602001909291905050506103ce565b604051808273ffffffffffffffffffffffffffffffffffffffff1673ffffffffffffffffffffffffffffffffffffffff16815260200191505060405180910390f35b6100d2610401565b604051808273ffffffffffffffffffffffffffffffffffffffff1673ffffffffffffffffffffffffffffffffffffffff16815260200191505060405180910390f35b61026e6004803603606081101561012a57600080fd5b810190808035906020019064010000000081111561014757600080fd5b82018360208201111561015957600080fd5b8035906020019184600183028401116401000000008311171561017b57600080fd5b91908080601f016020809104026020016040519081016040528093929190818152602001838380828437600081840152601f19601f82011690508083019250505050505050919291929080359060200190929190803590602001906401000000008111156101e857600080fd5b8201836020820111156101fa57600080fd5b8035906020019184600183028401116401000000008311171561021c57600080fd5b91908080601f016020809104026020016040519081016040528093929190818152602001838380828437600081840152601f19601f820116905080830192505050505050509192919290505050610426565b005b6102b26004803603602081101561028657600080fd5b81019080803573ffffffffffffffffffffffffffffffffffffffff1690602001909291905050506104ba565b005b6102e0600480360360208110156102ca57600080fd5b810190808035906020019092919050505061060b565b604051808060200184815260200180602001838103835286818151815260200191508051906020019080838360005b8381101561032a57808201518184015260208101905061030f565b50505050905090810190601f1680156103575780820380516001836020036101000a031916815260200191505b50838103825284818151815260200191508051906020019080838360005b83811015610390578082015181840152602081019050610375565b50505050905090810190601f1680156103bd5780820380516001836020036101000a031916815260200191505b509550505050505060405180910390f35b60026020528060005260406000206000915054906101000a900473ffffffffffffffffffffffffffffffffffffffff1681565b6000809054906101000a900473ffffffffffffffffffffffffffffffffffffffff1681565b600160405180606001604052808581526020018481526020018381525090806001815401808255809150509060018203906000526020600020906003020160009091929091909150600082015181600001908051906020019061048a929190610772565b506020820151816001015560408201518160020190805190602001906104b1929190610772565b50505050505050565b6000809054906101000a900473ffffffffffffffffffffffffffffffffffffffff1673ffffffffffffffffffffffffffffffffffffffff163373ffffffffffffffffffffffffffffffffffffffff161461051357600080fd5b600073ffffffffffffffffffffffffffffffffffffffff168173ffffffffffffffffffffffffffffffffffffffff16141561054d57600080fd5b8073ffffffffffffffffffffffffffffffffffffffff166000809054906101000a900473ffffffffffffffffffffffffffffffffffffffff1673ffffffffffffffffffffffffffffffffffffffff167f8be0079c531659141344cd1fd0a4f28419497f9722a3daafe3b4186f6b6457e060405160405180910390a3806000806101000a81548173ffffffffffffffffffffffffffffffffffffffff021916908373ffffffffffffffffffffffffffffffffffffffff16021790555050565b6001818154811061061857fe5b9060005260206000209060030201600091509050806000018054600181600116156101000203166002900480601f0160208091040260200160405190810160405280929190818152602001828054600181600116156101000203166002900480156106c45780601f10610699576101008083540402835291602001916106c4565b820191906000526020600020905b8154815290600101906020018083116106a757829003601f168201915b505050505090806001015490806002018054600181600116156101000203166002900480601f0160208091040260200160405190810160405280929190818152602001828054600181600116156101000203166002900480156107685780601f1061073d57610100808354040283529160200191610768565b820191906000526020600020905b81548152906001019060200180831161074b57829003601f168201915b5050505050905083565b828054600181600116156101000203166002900490600052602060002090601f016020900481019282601f106107b357805160ff19168380011785556107e1565b828001600101855582156107e1579182015b828111156107e05782518255916020019190600101906107c5565b5b5090506107ee91906107f2565b5090565b61081491905b808211156108105760008160009055506001016107f8565b5090565b9056fea265627a7a72315820b51d5aad334d4cf2da69a33170451e78e8cf8fb13fd46f5ddfcc6c2c19cfffdb64736f6c634300050c0032",
  "source": "pragma solidity ^0.5.11;\n\nimport \"./ownable.sol\";\n\ncontract PropertyFactory is Ownable {\n\n    event newProperty(uint propertyId, string name, uint price, string addressProperty);\n\n    struct Property {\n        string name;\n        uint price;\n        string addressProperty;\n    }\n\n    Property[] public properties;\n\n    mapping (uint => address) public propertyToOwner;\n    mapping (address => uint) ownerPropertyCount;\n\n    // Création d'un bien\n    function createProperty(string memory _name, uint _price, string memory _addressProperty) public {\n        // uint id =\n        properties.push(Property(_name, _price, _addressProperty));\n        // - 1;\n        // propertyToOwner[id] = msg.sender;\n        // ownerPropertyCount[msg.sender]++;\n        // emit newProperty(id, _name, _price, _addressProperty);\n    }\n\n    modifier onlyOwnerOf(uint _propertyId) {\n    require(msg.sender == propertyToOwner[_propertyId]);\n    _;\n  }\n}\n",
  "sourcePath": "/Users/kyllian/Projets/MarketPlace-Back/contracts/propertyfactory.sol",
  "compiler": {
    "name": "solc",
    "version": "0.5.12+commit.7709ece9.Emscripten.clang"
  },
  "schemaVersion": "3.0.19",
  "updatedAt": "2020-01-23T21:32:22.737Z",
  "networkType": "ethereum",
  "devdoc": {
    "methods": {
      "transferOwnership(address)": {
        "details": "Allows the current owner to transfer control of the contract to a newOwner.",
        "params": {
          "newOwner": "The address to transfer ownership to."
        }
      }
    }
  },
  "userdoc": {
    "methods": {}
  }
}