{
  "contractName": "PropertyHelper",
  "abi": [
    {
      "anonymous": false,
      "inputs": [
        {
          "indexed": true,
          "internalType": "address",
          "name": "previousOwner",
          "type": "address"
        },
        {
          "indexed": true,
          "internalType": "address",
          "name": "newOwner",
          "type": "address"
        }
      ],
      "name": "OwnershipTransferred",
      "type": "event"
    },
    {
      "anonymous": false,
      "inputs": [
        {
          "indexed": false,
          "internalType": "uint256",
          "name": "propertyId",
          "type": "uint256"
        },
        {
          "indexed": false,
          "internalType": "string",
          "name": "name",
          "type": "string"
        },
        {
          "indexed": false,
          "internalType": "uint256",
          "name": "price",
          "type": "uint256"
        },
        {
          "indexed": false,
          "internalType": "string",
          "name": "addressProperty",
          "type": "string"
        }
      ],
      "name": "newProperty",
      "type": "event"
    },
    {
      "constant": false,
      "inputs": [
        {
          "internalType": "string",
          "name": "_name",
          "type": "string"
        },
        {
          "internalType": "uint256",
          "name": "_price",
          "type": "uint256"
        },
        {
          "internalType": "string",
          "name": "_addressProperty",
          "type": "string"
        }
      ],
      "name": "createProperty",
      "outputs": [],
      "payable": false,
      "stateMutability": "nonpayable",
      "type": "function"
    },
    {
      "constant": true,
      "inputs": [],
      "name": "owner",
      "outputs": [
        {
          "internalType": "address",
          "name": "",
          "type": "address"
        }
      ],
      "payable": false,
      "stateMutability": "view",
      "type": "function"
    },
    {
      "constant": true,
      "inputs": [
        {
          "internalType": "uint256",
          "name": "",
          "type": "uint256"
        }
      ],
      "name": "properties",
      "outputs": [
        {
          "internalType": "string",
          "name": "name",
          "type": "string"
        },
        {
          "internalType": "uint256",
          "name": "price",
          "type": "uint256"
        },
        {
          "internalType": "string",
          "name": "addressProperty",
          "type": "string"
        }
      ],
      "payable": false,
      "stateMutability": "view",
      "type": "function"
    },
    {
      "constant": true,
      "inputs": [
        {
          "internalType": "uint256",
          "name": "",
          "type": "uint256"
        }
      ],
      "name": "propertyToOwner",
      "outputs": [
        {
          "internalType": "address",
          "name": "",
          "type": "address"
        }
      ],
      "payable": false,
      "stateMutability": "view",
      "type": "function"
    },
    {
      "constant": false,
      "inputs": [
        {
          "internalType": "address",
          "name": "newOwner",
          "type": "address"
        }
      ],
      "name": "transferOwnership",
      "outputs": [],
      "payable": false,
      "stateMutability": "nonpayable",
      "type": "function"
    },
    {
      "constant": false,
      "inputs": [
        {
          "internalType": "uint256",
          "name": "_propertyId",
          "type": "uint256"
        },
        {
          "internalType": "string",
          "name": "_newName",
          "type": "string"
        }
      ],
      "name": "changeName",
      "outputs": [],
      "payable": false,
      "stateMutability": "nonpayable",
      "type": "function"
    },
    {
      "constant": false,
      "inputs": [
        {
          "internalType": "uint256",
          "name": "_propertyId",
          "type": "uint256"
        },
        {
          "internalType": "string",
          "name": "_newAddressProperty",
          "type": "string"
        }
      ],
      "name": "changeAddressProperty",
      "outputs": [],
      "payable": false,
      "stateMutability": "nonpayable",
      "type": "function"
    },
    {
      "constant": true,
      "inputs": [
        {
          "internalType": "address",
          "name": "_owner",
          "type": "address"
        }
      ],
      "name": "getPropertiesByOwner",
      "outputs": [
        {
          "internalType": "uint256[]",
          "name": "",
          "type": "uint256[]"
        }
      ],
      "payable": false,
      "stateMutability": "view",
      "type": "function"
    },
    {
      "constant": true,
      "inputs": [],
      "name": "getAllProperties",
      "outputs": [
        {
          "components": [
            {
              "internalType": "string",
              "name": "name",
              "type": "string"
            },
            {
              "internalType": "uint256",
              "name": "price",
              "type": "uint256"
            },
            {
              "internalType": "string",
              "name": "addressProperty",
              "type": "string"
            }
          ],
          "internalType": "struct PropertyFactory.Property[]",
          "name": "",
          "type": "tuple[]"
        }
      ],
      "payable": false,
      "stateMutability": "view",
      "type": "function"
    }
  ],
  "bytecode": "0x6080604052336000806101000a81548173ffffffffffffffffffffffffffffffffffffffff021916908373ffffffffffffffffffffffffffffffffffffffff1602179055506000809054906101000a900473ffffffffffffffffffffffffffffffffffffffff1673ffffffffffffffffffffffffffffffffffffffff16600073ffffffffffffffffffffffffffffffffffffffff167f8be0079c531659141344cd1fd0a4f28419497f9722a3daafe3b4186f6b6457e060405160405180910390a361113b806100cf6000396000f3fe608060405234801561001057600080fd5b50600436106100935760003560e01c8063c39cbef111610066578063c39cbef114610134578063d6b0786e14610150578063ece2f43f1461016c578063f2fde38b14610188578063f7b10808146101a457610093565b80630b56e383146100985780633d51402c146100c85780638da5cb5b146100e65780639fcb274814610104575b600080fd5b6100b260048036036100ad9190810190610c29565b6101d6565b6040516100bf9190610e9f565b60405180910390f35b6100d0610209565b6040516100dd9190610eba565b60405180910390f35b6100ee6103b6565b6040516100fb9190610e9f565b60405180910390f35b61011e60048036036101199190810190610b81565b6103db565b60405161012b9190610edc565b60405180910390f35b61014e60048036036101499190810190610c52565b610508565b005b61016a60048036036101659190810190610c52565b6105a8565b005b61018660048036036101819190810190610baa565b610648565b005b6101a2600480360361019d9190810190610b81565b6106dc565b005b6101be60048036036101b99190810190610c29565b61082d565b6040516101cd93929190610efe565b60405180910390f35b60026020528060005260406000206000915054906101000a900473ffffffffffffffffffffffffffffffffffffffff1681565b60606001805480602002602001604051908101604052809291908181526020016000905b828210156103ad5783829060005260206000209060030201604051806060016040529081600082018054600181600116156101000203166002900480601f0160208091040260200160405190810160405280929190818152602001828054600181600116156101000203166002900480156102e95780601f106102be576101008083540402835291602001916102e9565b820191906000526020600020905b8154815290600101906020018083116102cc57829003601f168201915b5050505050815260200160018201548152602001600282018054600181600116156101000203166002900480601f0160208091040260200160405190810160405280929190818152602001828054600181600116156101000203166002900480156103955780601f1061036a57610100808354040283529160200191610395565b820191906000526020600020905b81548152906001019060200180831161037857829003601f168201915b5050505050815250508152602001906001019061022d565b50505050905090565b6000809054906101000a900473ffffffffffffffffffffffffffffffffffffffff1681565b606080600360008473ffffffffffffffffffffffffffffffffffffffff1673ffffffffffffffffffffffffffffffffffffffff1681526020019081526020016000205460405190808252806020026020018201604052801561044c5781602001602082028038833980820191505090505b509050600080905060008090505b6001805490508110156104fd578473ffffffffffffffffffffffffffffffffffffffff166002600083815260200190815260200160002060009054906101000a900473ffffffffffffffffffffffffffffffffffffffff1673ffffffffffffffffffffffffffffffffffffffff1614156104f057808383815181106104db57fe5b60200260200101818152505081806001019250505b808060010191505061045a565b508192505050919050565b826002600082815260200190815260200160002060009054906101000a900473ffffffffffffffffffffffffffffffffffffffff1673ffffffffffffffffffffffffffffffffffffffff163373ffffffffffffffffffffffffffffffffffffffff161461057457600080fd5b82826001868154811061058357fe5b906000526020600020906003020160000191906105a1929190610994565b5050505050565b826002600082815260200190815260200160002060009054906101000a900473ffffffffffffffffffffffffffffffffffffffff1673ffffffffffffffffffffffffffffffffffffffff163373ffffffffffffffffffffffffffffffffffffffff161461061457600080fd5b82826001868154811061062357fe5b90600052602060002090600302016002019190610641929190610994565b5050505050565b60016040518060600160405280858152602001848152602001838152509080600181540180825580915050906001820390600052602060002090600302016000909192909190915060008201518160000190805190602001906106ac929190610a14565b506020820151816001015560408201518160020190805190602001906106d3929190610a14565b50505050505050565b6000809054906101000a900473ffffffffffffffffffffffffffffffffffffffff1673ffffffffffffffffffffffffffffffffffffffff163373ffffffffffffffffffffffffffffffffffffffff161461073557600080fd5b600073ffffffffffffffffffffffffffffffffffffffff168173ffffffffffffffffffffffffffffffffffffffff16141561076f57600080fd5b8073ffffffffffffffffffffffffffffffffffffffff166000809054906101000a900473ffffffffffffffffffffffffffffffffffffffff1673ffffffffffffffffffffffffffffffffffffffff167f8be0079c531659141344cd1fd0a4f28419497f9722a3daafe3b4186f6b6457e060405160405180910390a3806000806101000a81548173ffffffffffffffffffffffffffffffffffffffff021916908373ffffffffffffffffffffffffffffffffffffffff16021790555050565b6001818154811061083a57fe5b9060005260206000209060030201600091509050806000018054600181600116156101000203166002900480601f0160208091040260200160405190810160405280929190818152602001828054600181600116156101000203166002900480156108e65780601f106108bb576101008083540402835291602001916108e6565b820191906000526020600020905b8154815290600101906020018083116108c957829003601f168201915b505050505090806001015490806002018054600181600116156101000203166002900480601f01602080910402602001604051908101604052809291908181526020018280546001816001161561010002031660029004801561098a5780601f1061095f5761010080835404028352916020019161098a565b820191906000526020600020905b81548152906001019060200180831161096d57829003601f168201915b5050505050905083565b828054600181600116156101000203166002900490600052602060002090601f016020900481019282601f106109d557803560ff1916838001178555610a03565b82800160010185558215610a03579182015b82811115610a025782358255916020019190600101906109e7565b5b509050610a109190610a94565b5090565b828054600181600116156101000203166002900490600052602060002090601f016020900481019282601f10610a5557805160ff1916838001178555610a83565b82800160010185558215610a83579182015b82811115610a82578251825591602001919060010190610a67565b5b509050610a909190610a94565b5090565b610ab691905b80821115610ab2576000816000905550600101610a9a565b5090565b90565b600081359050610ac8816110ca565b92915050565b60008083601f840112610ae057600080fd5b8235905067ffffffffffffffff811115610af957600080fd5b602083019150836001820283011115610b1157600080fd5b9250929050565b600082601f830112610b2957600080fd5b8135610b3c610b3782610f70565b610f43565b91508082526020830160208301858383011115610b5857600080fd5b610b63838284611077565b50505092915050565b600081359050610b7b816110e1565b92915050565b600060208284031215610b9357600080fd5b6000610ba184828501610ab9565b91505092915050565b600080600060608486031215610bbf57600080fd5b600084013567ffffffffffffffff811115610bd957600080fd5b610be586828701610b18565b9350506020610bf686828701610b6c565b925050604084013567ffffffffffffffff811115610c1357600080fd5b610c1f86828701610b18565b9150509250925092565b600060208284031215610c3b57600080fd5b6000610c4984828501610b6c565b91505092915050565b600080600060408486031215610c6757600080fd5b6000610c7586828701610b6c565b935050602084013567ffffffffffffffff811115610c9257600080fd5b610c9e86828701610ace565b92509250509250925092565b6000610cb68383610e2a565b905092915050565b6000610cca8383610e81565b60208301905092915050565b610cdf8161103b565b82525050565b6000610cf082610fbc565b610cfa8185610ff7565b935083602082028501610d0c85610f9c565b8060005b85811015610d485784840389528151610d298582610caa565b9450610d3483610fdd565b925060208a01995050600181019050610d10565b50829750879550505050505092915050565b6000610d6582610fc7565b610d6f8185611008565b9350610d7a83610fac565b8060005b83811015610dab578151610d928882610cbe565b9750610d9d83610fea565b925050600181019050610d7e565b5085935050505092915050565b6000610dc382610fd2565b610dcd8185611019565b9350610ddd818560208601611086565b610de6816110b9565b840191505092915050565b6000610dfc82610fd2565b610e06818561102a565b9350610e16818560208601611086565b610e1f816110b9565b840191505092915050565b60006060830160008301518482036000860152610e478282610db8565b9150506020830151610e5c6020860182610e81565b5060408301518482036040860152610e748282610db8565b9150508091505092915050565b610e8a8161106d565b82525050565b610e998161106d565b82525050565b6000602082019050610eb46000830184610cd6565b92915050565b60006020820190508181036000830152610ed48184610ce5565b905092915050565b60006020820190508181036000830152610ef68184610d5a565b905092915050565b60006060820190508181036000830152610f188186610df1565b9050610f276020830185610e90565b8181036040830152610f398184610df1565b9050949350505050565b6000604051905081810181811067ffffffffffffffff82111715610f6657600080fd5b8060405250919050565b600067ffffffffffffffff821115610f8757600080fd5b601f19601f8301169050602081019050919050565b6000819050602082019050919050565b6000819050602082019050919050565b600081519050919050565b600081519050919050565b600081519050919050565b6000602082019050919050565b6000602082019050919050565b600082825260208201905092915050565b600082825260208201905092915050565b600082825260208201905092915050565b600082825260208201905092915050565b60006110468261104d565b9050919050565b600073ffffffffffffffffffffffffffffffffffffffff82169050919050565b6000819050919050565b82818337600083830152505050565b60005b838110156110a4578082015181840152602081019050611089565b838111156110b3576000848401525b50505050565b6000601f19601f8301169050919050565b6110d38161103b565b81146110de57600080fd5b50565b6110ea8161106d565b81146110f557600080fd5b5056fea365627a7a72315820052f21aa150087c2b47dfc3e5b54f186e541f14df28d78677e719d3ab8e9f6ec6c6578706572696d656e74616cf564736f6c634300050c0040",
  "source": "pragma solidity >=0.4.25 < 0.6.0;\npragma experimental ABIEncoderV2;\n\nimport \"./propertyfactory.sol\";\n\ncontract PropertyHelper is PropertyFactory {\n\nfunction changeName(uint _propertyId, string calldata _newName) external onlyOwnerOf(_propertyId) {\n  properties[_propertyId].name = _newName;\n}\n\nfunction changeAddressProperty(uint _propertyId, string calldata _newAddressProperty) external onlyOwnerOf(_propertyId) {\n  properties[_propertyId].addressProperty = _newAddressProperty;\n}\n\nfunction getPropertiesByOwner(address _owner) public view returns(uint[] memory) {\n    uint[] memory result = new uint[](ownerPropertyCount[_owner]);\n    uint counter = 0;\n    for (uint i = 0; i < properties.length; i++) {\n      if (propertyToOwner[i] == _owner) {\n        result[counter] = i;\n        counter++;\n      }\n    }\n    return result;\n  }\n\n  function getAllProperties() public view returns(Property[] memory) {\n      return properties;\n  }\n}\n\n\n",
  "sourcePath": "/Users/kyllian/Projets/MarketPlace-Back/contracts/propertyhelper.sol",
  "compiler": {
    "name": "solc",
    "version": "0.5.12+commit.7709ece9.Emscripten.clang"
  },
  "schemaVersion": "3.0.19",
  "updatedAt": "2020-01-23T21:32:22.939Z",
  "networkType": "ethereum",
  "devdoc": {
    "methods": {
      "transferOwnership(address)": {
        "details": "Allows the current owner to transfer control of the contract to a newOwner.",
        "params": {
          "newOwner": "The address to transfer ownership to."
        }
      }
    }
  },
  "userdoc": {
    "methods": {}
  }
}