{
  "contractName": "PropertyFactory",
  "abi": [
    {
      "constant": true,
      "inputs": [
        {
          "name": "",
          "type": "uint256"
        }
      ],
      "name": "properties",
      "outputs": [
        {
          "name": "idProperty",
          "type": "uint256"
        },
        {
          "name": "name",
          "type": "string"
        },
        {
          "name": "price",
          "type": "uint256"
        },
        {
          "name": "addressProperty",
          "type": "string"
        },
        {
          "name": "owner",
          "type": "address"
        }
      ],
      "payable": false,
      "stateMutability": "view",
      "type": "function"
    },
    {
      "inputs": [],
      "payable": false,
      "stateMutability": "nonpayable",
      "type": "constructor"
    },
    {
      "anonymous": false,
      "inputs": [
        {
          "indexed": false,
          "name": "_saleAddress",
          "type": "address"
        },
        {
          "indexed": false,
          "name": "_purshaseAddress",
          "type": "address"
        },
        {
          "indexed": false,
          "name": "price",
          "type": "uint256"
        }
      ],
      "name": "buyingProperty",
      "type": "event"
    },
    {
      "constant": false,
      "inputs": [
        {
          "name": "_name",
          "type": "string"
        },
        {
          "name": "_price",
          "type": "uint256"
        },
        {
          "name": "_addressProperty",
          "type": "string"
        },
        {
          "name": "_owner",
          "type": "address"
        }
      ],
      "name": "createProperty",
      "outputs": [],
      "payable": false,
      "stateMutability": "nonpayable",
      "type": "function"
    },
    {
      "constant": false,
      "inputs": [
        {
          "name": "_idProperty",
          "type": "uint256"
        }
      ],
      "name": "purshaseProperty",
      "outputs": [
        {
          "name": "",
          "type": "bool"
        }
      ],
      "payable": true,
      "stateMutability": "payable",
      "type": "function"
    },
    {
      "constant": true,
      "inputs": [
        {
          "name": "_owner",
          "type": "address"
        }
      ],
      "name": "getPropertiesByOwner",
      "outputs": [
        {
          "components": [
            {
              "name": "idProperty",
              "type": "uint256"
            },
            {
              "name": "name",
              "type": "string"
            },
            {
              "name": "price",
              "type": "uint256"
            },
            {
              "name": "addressProperty",
              "type": "string"
            },
            {
              "name": "owner",
              "type": "address"
            }
          ],
          "name": "",
          "type": "tuple[]"
        }
      ],
      "payable": false,
      "stateMutability": "view",
      "type": "function"
    },
    {
      "constant": true,
      "inputs": [
        {
          "name": "_owner",
          "type": "address"
        }
      ],
      "name": "getTotalOfPropertiesByOwner",
      "outputs": [
        {
          "name": "",
          "type": "uint256"
        }
      ],
      "payable": false,
      "stateMutability": "view",
      "type": "function"
    },
    {
      "constant": true,
      "inputs": [],
      "name": "getAllProperties",
      "outputs": [
        {
          "components": [
            {
              "name": "idProperty",
              "type": "uint256"
            },
            {
              "name": "name",
              "type": "string"
            },
            {
              "name": "price",
              "type": "uint256"
            },
            {
              "name": "addressProperty",
              "type": "string"
            },
            {
              "name": "owner",
              "type": "address"
            }
          ],
          "name": "",
          "type": "tuple[]"
        }
      ],
      "payable": false,
      "stateMutability": "view",
      "type": "function"
    },
    {
      "constant": true,
      "inputs": [
        {
          "name": "_idProperty",
          "type": "uint256"
        }
      ],
      "name": "getProperty",
      "outputs": [
        {
          "components": [
            {
              "name": "idProperty",
              "type": "uint256"
            },
            {
              "name": "name",
              "type": "string"
            },
            {
              "name": "price",
              "type": "uint256"
            },
            {
              "name": "addressProperty",
              "type": "string"
            },
            {
              "name": "owner",
              "type": "address"
            }
          ],
          "name": "",
          "type": "tuple"
        }
      ],
      "payable": false,
      "stateMutability": "view",
      "type": "function"
    },
    {
      "constant": false,
      "inputs": [
        {
          "name": "_propertyId",
          "type": "uint256"
        },
        {
          "name": "_newName",
          "type": "string"
        }
      ],
      "name": "changeName",
      "outputs": [],
      "payable": false,
      "stateMutability": "nonpayable",
      "type": "function"
    },
    {
      "constant": false,
      "inputs": [
        {
          "name": "_propertyId",
          "type": "uint256"
        },
        {
          "name": "_newAddressProperty",
          "type": "string"
        }
      ],
      "name": "changeAddressProperty",
      "outputs": [],
      "payable": false,
      "stateMutability": "nonpayable",
      "type": "function"
    }
  ],
  "bytecode": "0x608060405234801561001057600080fd5b5033600260006101000a81548173ffffffffffffffffffffffffffffffffffffffff021916908373ffffffffffffffffffffffffffffffffffffffff16021790555061182e806100616000396000f300608060405260043610610099576000357c0100000000000000000000000000000000000000000000000000000000900463ffffffff16806332665ffb1461009e5780633d51402c146100db578063615059b9146101065780639fcb274814610143578063c39cbef114610180578063d6b0786e146101a9578063de9c5d28146101d2578063e387d78014610202578063f7b108081461022b575b600080fd5b3480156100aa57600080fd5b506100c560048036036100c091908101906112e1565b61026c565b6040516100d2919061161a565b60405180910390f35b3480156100e757600080fd5b506100f06104a1565b6040516100fd91906115bd565b60405180910390f35b34801561011257600080fd5b5061012d60048036036101289190810190611225565b6106af565b60405161013a919061163c565b60405180910390f35b34801561014f57600080fd5b5061016a60048036036101659190810190611225565b61075d565b60405161017791906115bd565b60405180910390f35b34801561018c57600080fd5b506101a760048036036101a2919081019061130a565b610a4c565b005b3480156101b557600080fd5b506101d060048036036101cb919081019061130a565b610a85565b005b6101ec60048036036101e791908101906112e1565b610abe565b6040516101f991906115df565b60405180910390f35b34801561020e57600080fd5b506102296004803603610224919081019061124e565b610d4a565b005b34801561023757600080fd5b50610252600480360361024d91908101906112e1565b610e61565b604051610263959493929190611657565b60405180910390f35b610274610ff6565b60008090505b60008054905081101561049a578260008281548110151561029757fe5b906000526020600020906005020160000154141561048d576000818154811015156102be57fe5b906000526020600020906005020160a0604051908101604052908160008201548152602001600182018054600181600116156101000203166002900480601f01602080910402602001604051908101604052809291908181526020018280546001816001161561010002031660029004801561037b5780601f106103505761010080835404028352916020019161037b565b820191906000526020600020905b81548152906001019060200180831161035e57829003601f168201915b5050505050815260200160028201548152602001600382018054600181600116156101000203166002900480601f0160208091040260200160405190810160405280929190818152602001828054600181600116156101000203166002900480156104275780601f106103fc57610100808354040283529160200191610427565b820191906000526020600020905b81548152906001019060200180831161040a57829003601f168201915b505050505081526020016004820160009054906101000a900473ffffffffffffffffffffffffffffffffffffffff1673ffffffffffffffffffffffffffffffffffffffff1673ffffffffffffffffffffffffffffffffffffffff1681525050915061049b565b808060010191505061027a565b5b50919050565b60606000805480602002602001604051908101604052809291908181526020016000905b828210156106a6578382906000526020600020906005020160a0604051908101604052908160008201548152602001600182018054600181600116156101000203166002900480601f01602080910402602001604051908101604052809291908181526020018280546001816001161561010002031660029004801561058c5780601f106105615761010080835404028352916020019161058c565b820191906000526020600020905b81548152906001019060200180831161056f57829003601f168201915b5050505050815260200160028201548152602001600382018054600181600116156101000203166002900480601f0160208091040260200160405190810160405280929190818152602001828054600181600116156101000203166002900480156106385780601f1061060d57610100808354040283529160200191610638565b820191906000526020600020905b81548152906001019060200180831161061b57829003601f168201915b505050505081526020016004820160009054906101000a900473ffffffffffffffffffffffffffffffffffffffff1673ffffffffffffffffffffffffffffffffffffffff1673ffffffffffffffffffffffffffffffffffffffff1681525050815260200190600101906104c5565b50505050905090565b6000806000809150600090505b600080549050811015610753578373ffffffffffffffffffffffffffffffffffffffff166000828154811015156106ef57fe5b906000526020600020906005020160040160009054906101000a900473ffffffffffffffffffffffffffffffffffffffff1673ffffffffffffffffffffffffffffffffffffffff1614156107465781806001019250505b80806001019150506106bc565b8192505050919050565b60606000606060008061076f866106af565b9350836040519080825280602002602001820160405280156107ab57816020015b61079861103c565b8152602001906001900390816107905790505b50925060009150600090505b600080549050811015610a40578573ffffffffffffffffffffffffffffffffffffffff166000828154811015156107ea57fe5b906000526020600020906005020160040160009054906101000a900473ffffffffffffffffffffffffffffffffffffffff1673ffffffffffffffffffffffffffffffffffffffff161415610a335760008181548110151561084757fe5b906000526020600020906005020160a0604051908101604052908160008201548152602001600182018054600181600116156101000203166002900480601f0160208091040260200160405190810160405280929190818152602001828054600181600116156101000203166002900480156109045780601f106108d957610100808354040283529160200191610904565b820191906000526020600020905b8154815290600101906020018083116108e757829003601f168201915b5050505050815260200160028201548152602001600382018054600181600116156101000203166002900480601f0160208091040260200160405190810160405280929190818152602001828054600181600116156101000203166002900480156109b05780601f10610985576101008083540402835291602001916109b0565b820191906000526020600020905b81548152906001019060200180831161099357829003601f168201915b505050505081526020016004820160009054906101000a900473ffffffffffffffffffffffffffffffffffffffff1673ffffffffffffffffffffffffffffffffffffffff1673ffffffffffffffffffffffffffffffffffffffff16815250508383815181101515610a1d57fe5b9060200190602002018190525081806001019250505b80806001019150506107b7565b82945050505050919050565b80600083815481101515610a5c57fe5b90600052602060002090600502016001019080519060200190610a80929190611082565b505050565b80600083815481101515610a9557fe5b90600052602060002090600502016003019080519060200190610ab9929190611082565b505050565b600080600090505b600080549050811015610d3f5782600082815481101515610ae357fe5b9060005260206000209060050201600001541415610d325760008082815481101515610b0b57fe5b9060005260206000209060050201600201543403111515610b61576040517f08c379a0000000000000000000000000000000000000000000000000000000008152600401610b58906115fa565b60405180910390fd5b600081815481101515610b7057fe5b906000526020600020906005020160040160009054906101000a900473ffffffffffffffffffffffffffffffffffffffff16600160006101000a81548173ffffffffffffffffffffffffffffffffffffffff021916908373ffffffffffffffffffffffffffffffffffffffff160217905550600160009054906101000a900473ffffffffffffffffffffffffffffffffffffffff1673ffffffffffffffffffffffffffffffffffffffff166108fc349081150290604051600060405180830381858888f19350505050158015610c4a573d6000803e3d6000fd5b507f3ebdf1cb3c1816c86575063f4797ebc63258a774574a30bd072d2aec815c47f7600160009054906101000a900473ffffffffffffffffffffffffffffffffffffffff16600260009054906101000a900473ffffffffffffffffffffffffffffffffffffffff1634604051610cc293929190611586565b60405180910390a133600082815481101515610cda57fe5b906000526020600020906005020160040160006101000a81548173ffffffffffffffffffffffffffffffffffffffff021916908373ffffffffffffffffffffffffffffffffffffffff16021790555060019150610d44565b8080600101915050610ac6565b600091505b50919050565b60006001600080549050019050600060a0604051908101604052808381526020018781526020018681526020018581526020018473ffffffffffffffffffffffffffffffffffffffff1681525090806001815401808255809150509060018203906000526020600020906005020160009091929091909150600082015181600001556020820151816001019080519060200190610de8929190611102565b50604082015181600201556060820151816003019080519060200190610e0f929190611102565b5060808201518160040160006101000a81548173ffffffffffffffffffffffffffffffffffffffff021916908373ffffffffffffffffffffffffffffffffffffffff1602179055505050505050505050565b600081815481101515610e7057fe5b9060005260206000209060050201600091509050806000015490806001018054600181600116156101000203166002900480601f016020809104026020016040519081016040528092919081815260200182805460018160011615610100020316600290048015610f225780601f10610ef757610100808354040283529160200191610f22565b820191906000526020600020905b815481529060010190602001808311610f0557829003601f168201915b505050505090806002015490806003018054600181600116156101000203166002900480601f016020809104026020016040519081016040528092919081815260200182805460018160011615610100020316600290048015610fc65780601f10610f9b57610100808354040283529160200191610fc6565b820191906000526020600020905b815481529060010190602001808311610fa957829003601f168201915b5050505050908060040160009054906101000a900473ffffffffffffffffffffffffffffffffffffffff16905085565b60a06040519081016040528060008152602001606081526020016000815260200160608152602001600073ffffffffffffffffffffffffffffffffffffffff1681525090565b60a06040519081016040528060008152602001606081526020016000815260200160608152602001600073ffffffffffffffffffffffffffffffffffffffff1681525090565b828054600181600116156101000203166002900490600052602060002090601f016020900481019282601f106110c357805160ff19168380011785556110f1565b828001600101855582156110f1579182015b828111156110f05782518255916020019190600101906110d5565b5b5090506110fe9190611182565b5090565b828054600181600116156101000203166002900490600052602060002090601f016020900481019282601f1061114357805160ff1916838001178555611171565b82800160010185558215611171579182015b82811115611170578251825591602001919060010190611155565b5b50905061117e9190611182565b5090565b6111a491905b808211156111a0576000816000905550600101611188565b5090565b90565b60006111b38235611777565b905092915050565b600082601f83011215156111ce57600080fd5b81356111e16111dc826116e5565b6116b8565b915080825260208301602083018583830111156111fd57600080fd5b6112088382846117a1565b50505092915050565b600061121d8235611797565b905092915050565b60006020828403121561123757600080fd5b6000611245848285016111a7565b91505092915050565b6000806000806080858703121561126457600080fd5b600085013567ffffffffffffffff81111561127e57600080fd5b61128a878288016111bb565b945050602061129b87828801611211565b935050604085013567ffffffffffffffff8111156112b857600080fd5b6112c4878288016111bb565b92505060606112d5878288016111a7565b91505092959194509250565b6000602082840312156112f357600080fd5b600061130184828501611211565b91505092915050565b6000806040838503121561131d57600080fd5b600061132b85828601611211565b925050602083013567ffffffffffffffff81111561134857600080fd5b611354858286016111bb565b9150509250929050565b61136781611741565b82525050565b60006113788261171e565b8084526020840193508360208202850161139185611711565b60005b848110156113ca5783830388526113ac8383516114fa565b92506113b782611734565b9150602088019750600181019050611394565b508196508694505050505092915050565b6113e481611761565b82525050565b60006113f582611729565b8084526114098160208601602086016117b0565b611412816117e3565b602085010191505092915050565b6000602a82527f417267656e7420696e737566666973616e742c207472616e73616374696f6e2060208301527f696d706f737369626c65000000000000000000000000000000000000000000006040830152606082019050919050565b600060a0830160008301516114956000860182611577565b50602083015184820360208601526114ad82826113ea565b91505060408301516114c26040860182611577565b50606083015184820360608601526114da82826113ea565b91505060808301516114ef608086018261135e565b508091505092915050565b600060a0830160008301516115126000860182611577565b506020830151848203602086015261152a82826113ea565b915050604083015161153f6040860182611577565b506060830151848203606086015261155782826113ea565b915050608083015161156c608086018261135e565b508091505092915050565b6115808161176d565b82525050565b600060608201905061159b600083018661135e565b6115a8602083018561135e565b6115b56040830184611577565b949350505050565b600060208201905081810360008301526115d7818461136d565b905092915050565b60006020820190506115f460008301846113db565b92915050565b6000602082019050818103600083015261161381611420565b9050919050565b60006020820190508181036000830152611634818461147d565b905092915050565b60006020820190506116516000830184611577565b92915050565b600060a08201905061166c6000830188611577565b818103602083015261167e81876113ea565b905061168d6040830186611577565b818103606083015261169f81856113ea565b90506116ae608083018461135e565b9695505050505050565b6000604051905081810181811067ffffffffffffffff821117156116db57600080fd5b8060405250919050565b600067ffffffffffffffff8211156116fc57600080fd5b601f19601f8301169050602081019050919050565b6000602082019050919050565b600081519050919050565b600081519050919050565b6000602082019050919050565b600073ffffffffffffffffffffffffffffffffffffffff82169050919050565b60008115159050919050565b6000819050919050565b600073ffffffffffffffffffffffffffffffffffffffff82169050919050565b6000819050919050565b82818337600083830152505050565b60005b838110156117ce5780820151818401526020810190506117b3565b838111156117dd576000848401525b50505050565b6000601f19601f83011690509190505600a265627a7a72305820f7ba7028302db7db90cd14d256fa3f51b0d04506e80621dcee95a89e3a44918c6c6578706572696d656e74616cf50037",
  "source": "pragma solidity >=0.4.25 < 0.6.0;\npragma experimental ABIEncoderV2;\n\ncontract PropertyFactory {\n\n    struct Property {\n        uint idProperty;\n        string name;\n        uint price;\n        string addressProperty;\n        address owner;\n    }\n\n    Property[] public properties;\n\n    \n    address saleAddress;\n    address purshaseAddress;\n\n    event buyingProperty(address _saleAddress, address _purshaseAddress, uint price);\n\n    constructor() public {\n        purshaseAddress = msg.sender;\n    }\n\n    // Création d'un bien\n    function createProperty(string memory _name, uint _price, string memory _addressProperty, address _owner) public {\n        uint id = properties.length + 1;\n        properties.push(Property(id, _name, _price, _addressProperty, _owner));\n    }\n\n    // Achat d'un bien\n    function purshaseProperty(uint _idProperty) external payable returns(bool) {\n        for(uint i = 0; i < properties.length; i++) {\n            if(properties[i].idProperty == _idProperty) {\n                require((msg.value - properties[i].price) > 0, \"Argent insuffisant, transaction impossible\");\n                // ACHAT\n                saleAddress = properties[i].owner;\n                saleAddress.transfer(msg.value);\n                emit buyingProperty(saleAddress, purshaseAddress, msg.value);\n                properties[i].owner = msg.sender;\n                return true;\n            }\n        }\n        return false;\n    }\n\n    // tous les biens d'un owner\n    function getPropertiesByOwner(address _owner) public view returns(Property[] memory) {\n      uint size = getTotalOfPropertiesByOwner(_owner);\n      Property[] memory result = new Property[](size);\n      uint counter = 0;\n      for(uint i = 0 ; i < properties.length; i++) {\n        if(properties[i].owner == _owner) {\n          result[counter] = properties[i];\n          counter++;\n        }\n      }\n      return result;\n    }\n\n    // le nb de biens d'un owner\n    function getTotalOfPropertiesByOwner(address _owner) public view returns(uint) {\n      uint cpt = 0;\n      for(uint i = 0 ; i < properties.length; i++) {\n        if(properties[i].owner == _owner) {\n          cpt++;\n        }\n      }\n      return cpt;\n    }\n\n    // tous les biens\n    function getAllProperties() public view returns(Property[] memory) {\n        return properties;\n    }\n\n    // un bien en particulier\n    function getProperty(uint _idProperty) public view returns(Property memory) {\n      for(uint i = 0 ; i < properties.length; i++) {\n        if(properties[i].idProperty == _idProperty) {\n          return properties[i];\n        }\n      }\n    }\n\n    // changement de nom d'un bien\n    function changeName(uint _propertyId, string memory _newName) public {\n      properties[_propertyId].name = _newName;\n    }\n\n    // changement d'adresse d'un bien\n    function changeAddressProperty(uint _propertyId, string memory _newAddressProperty) public {\n      properties[_propertyId].addressProperty = _newAddressProperty;\n    }\n}\n",
  "sourcePath": "/Users/kyllian/Projets/MarketPlace-Back/contracts/propertyfactory.sol",
  "compiler": {
    "name": "solc",
    "version": "0.4.25+commit.59dbf8f1.Emscripten.clang"
  },
  "schemaVersion": "3.0.19",
  "updatedAt": "2020-01-26T16:15:17.711Z",
  "networkType": "ethereum",
  "devdoc": {
    "methods": {}
  },
  "userdoc": {
    "methods": {}
  }
}